{
  "contractName": "ChainList",
  "abi": [
    {
      "constant": false,
      "inputs": [
        {
          "name": "_id",
          "type": "uint256"
        }
      ],
      "name": "buyArticle",
      "outputs": [],
      "payable": true,
      "stateMutability": "payable",
      "type": "function"
    },
    {
      "constant": false,
      "inputs": [],
      "name": "kill",
      "outputs": [],
      "payable": false,
      "stateMutability": "nonpayable",
      "type": "function"
    },
    {
      "constant": true,
      "inputs": [],
      "name": "getArticlesForSale",
      "outputs": [
        {
          "name": "",
          "type": "uint256[]"
        }
      ],
      "payable": false,
      "stateMutability": "view",
      "type": "function"
    },
    {
      "constant": true,
      "inputs": [],
      "name": "getNumberOfArticles",
      "outputs": [
        {
          "name": "",
          "type": "uint256"
        }
      ],
      "payable": false,
      "stateMutability": "view",
      "type": "function"
    },
    {
      "constant": false,
      "inputs": [
        {
          "name": "_name",
          "type": "string"
        },
        {
          "name": "_description",
          "type": "string"
        },
        {
          "name": "_price",
          "type": "uint256"
        }
      ],
      "name": "sellArticle",
      "outputs": [],
      "payable": false,
      "stateMutability": "nonpayable",
      "type": "function"
    },
    {
      "constant": true,
      "inputs": [
        {
          "name": "",
          "type": "uint256"
        }
      ],
      "name": "articles",
      "outputs": [
        {
          "name": "id",
          "type": "uint256"
        },
        {
          "name": "seller",
          "type": "address"
        },
        {
          "name": "buyer",
          "type": "address"
        },
        {
          "name": "name",
          "type": "string"
        },
        {
          "name": "description",
          "type": "string"
        },
        {
          "name": "price",
          "type": "uint256"
        }
      ],
      "payable": false,
      "stateMutability": "view",
      "type": "function"
    },
    {
      "anonymous": false,
      "inputs": [
        {
          "indexed": true,
          "name": "_id",
          "type": "uint256"
        },
        {
          "indexed": true,
          "name": "_seller",
          "type": "address"
        },
        {
          "indexed": false,
          "name": "_name",
          "type": "string"
        },
        {
          "indexed": false,
          "name": "_price",
          "type": "uint256"
        }
      ],
      "name": "sellArticleEvent",
      "type": "event"
    },
    {
      "anonymous": false,
      "inputs": [
        {
          "indexed": true,
          "name": "_id",
          "type": "uint256"
        },
        {
          "indexed": true,
          "name": "_seller",
          "type": "address"
        },
        {
          "indexed": true,
          "name": "_buyer",
          "type": "address"
        },
        {
          "indexed": false,
          "name": "_name",
          "type": "string"
        },
        {
          "indexed": false,
          "name": "_price",
          "type": "uint256"
        }
      ],
      "name": "buyArticleEvent",
      "type": "event"
    }
  ],
  "bytecode": "0x6060604052336000806101000a81548173ffffffffffffffffffffffffffffffffffffffff021916908373ffffffffffffffffffffffffffffffffffffffff160217905550610c44806100536000396000f300606060405260043610610078576000357c0100000000000000000000000000000000000000000000000000000000900463ffffffff1680631cc4baa81461007d57806341c0e1b5146100955780637f6be3da146100aa57806389da85d314610114578063d26095151461013d578063edcfafe6146101e6575b600080fd5b610093600480803590602001909190505061039c565b005b34156100a057600080fd5b6100a8610684565b005b34156100b557600080fd5b6100bd610719565b6040518080602001828103825283818151815260200191508051906020019060200280838360005b838110156101005780820151818401526020810190506100e5565b505050509050019250505060405180910390f35b341561011f57600080fd5b6101276108b5565b6040518082815260200191505060405180910390f35b341561014857600080fd5b6101e4600480803590602001908201803590602001908080601f0160208091040260200160405190810160405280939291908181526020018383808284378201915050505050509190803590602001908201803590602001908080601f016020809104026020016040519081016040528093929190818152602001838380828437820191505050505050919080359060200190919050506108bf565b005b34156101f157600080fd5b6102076004808035906020019091905050610ae5565b604051808781526020018673ffffffffffffffffffffffffffffffffffffffff1673ffffffffffffffffffffffffffffffffffffffff1681526020018573ffffffffffffffffffffffffffffffffffffffff1673ffffffffffffffffffffffffffffffffffffffff16815260200180602001806020018481526020018381038352868181546001816001161561010002031660029004815260200191508054600181600116156101000203166002900480156103045780601f106102d957610100808354040283529160200191610304565b820191906000526020600020905b8154815290600101906020018083116102e757829003601f168201915b50508381038252858181546001816001161561010002031660029004815260200191508054600181600116156101000203166002900480156103875780601f1061035c57610100808354040283529160200191610387565b820191906000526020600020905b81548152906001019060200180831161036a57829003601f168201915b50509850505050505050505060405180910390f35b6000806002541115156103ae57600080fd5b6000821180156103c057506002548211155b15156103cb57600080fd5b60016000838152602001908152602001600020905060008160020160009054906101000a900473ffffffffffffffffffffffffffffffffffffffff1673ffffffffffffffffffffffffffffffffffffffff1614151561042957600080fd5b8060010160009054906101000a900473ffffffffffffffffffffffffffffffffffffffff1673ffffffffffffffffffffffffffffffffffffffff163373ffffffffffffffffffffffffffffffffffffffff161415151561048857600080fd5b80600501543414151561049a57600080fd5b338160020160006101000a81548173ffffffffffffffffffffffffffffffffffffffff021916908373ffffffffffffffffffffffffffffffffffffffff1602179055508060010160009054906101000a900473ffffffffffffffffffffffffffffffffffffffff1673ffffffffffffffffffffffffffffffffffffffff166108fc349081150290604051600060405180830381858888f19350505050151561054157600080fd5b8060020160009054906101000a900473ffffffffffffffffffffffffffffffffffffffff1673ffffffffffffffffffffffffffffffffffffffff168160010160009054906101000a900473ffffffffffffffffffffffffffffffffffffffff1673ffffffffffffffffffffffffffffffffffffffff16837f1022115f3a730bbc8daef9a08e80544240a1578ecba51270e55ab8e72d626e7284600301856005015460405180806020018381526020018281038252848181546001816001161561010002031660029004815260200191508054600181600116156101000203166002900480156106715780601f1061064657610100808354040283529160200191610671565b820191906000526020600020905b81548152906001019060200180831161065457829003601f168201915b5050935050505060405180910390a45050565b6000809054906101000a900473ffffffffffffffffffffffffffffffffffffffff1673ffffffffffffffffffffffffffffffffffffffff163373ffffffffffffffffffffffffffffffffffffffff161415156106df57600080fd5b6000809054906101000a900473ffffffffffffffffffffffffffffffffffffffff1673ffffffffffffffffffffffffffffffffffffffff16ff5b610721610b5f565b610729610b5f565b600080610734610b5f565b6000600254141561076657600060405180591061074e5750595b908082528060200260200182016040525094506108ae565b6002546040518059106107765750595b9080825280602002602001820160405250935060009250600191505b6002548211151561083b5760006001600084815260200190815260200160002060020160009054906101000a900473ffffffffffffffffffffffffffffffffffffffff1673ffffffffffffffffffffffffffffffffffffffff16141561082e576001600083815260200190815260200160002060000154848481518110151561081757fe5b906020019060200201818152505082806001019350505b8180600101925050610792565b826040518059106108495750595b90808252806020026020018201604052509050600091505b828210156108aa57838281518110151561087757fe5b90602001906020020151818381518110151561088f57fe5b90602001906020020181815250508180600101925050610861565b8094505b5050505090565b6000600254905090565b60026000815480929190600101919050555060c06040519081016040528060025481526020013373ffffffffffffffffffffffffffffffffffffffff168152602001600073ffffffffffffffffffffffffffffffffffffffff168152602001848152602001838152602001828152506001600060025481526020019081526020016000206000820151816000015560208201518160010160006101000a81548173ffffffffffffffffffffffffffffffffffffffff021916908373ffffffffffffffffffffffffffffffffffffffff16021790555060408201518160020160006101000a81548173ffffffffffffffffffffffffffffffffffffffff021916908373ffffffffffffffffffffffffffffffffffffffff16021790555060608201518160030190805190602001906109f7929190610b73565b506080820151816004019080519060200190610a14929190610b73565b5060a082015181600501559050503373ffffffffffffffffffffffffffffffffffffffff166002547fe6dcabaf37bca305551877dc9bc2cb6019fbb7859c0f74c037077d948fb17c5685846040518080602001838152602001828103825284818151815260200191508051906020019080838360005b83811015610aa5578082015181840152602081019050610a8a565b50505050905090810190601f168015610ad25780820380516001836020036101000a031916815260200191505b50935050505060405180910390a3505050565b60016020528060005260406000206000915090508060000154908060010160009054906101000a900473ffffffffffffffffffffffffffffffffffffffff16908060020160009054906101000a900473ffffffffffffffffffffffffffffffffffffffff1690806003019080600401908060050154905086565b602060405190810160405280600081525090565b828054600181600116156101000203166002900490600052602060002090601f016020900481019282601f10610bb457805160ff1916838001178555610be2565b82800160010185558215610be2579182015b82811115610be1578251825591602001919060010190610bc6565b5b509050610bef9190610bf3565b5090565b610c1591905b80821115610c11576000816000905550600101610bf9565b5090565b905600a165627a7a72305820140c208b2ce83a4cb2926ef45c920660dfd9e9caec1af512d60feeaa7c0b07490029",
  "source": "pragma solidity ^0.4.2;\n\nimport \"./Owned.sol\";\n\ncontract ChainList is Owned {\n    // Custom types\n    struct Article {\n        uint id;\n        address seller;\n        address buyer;\n        string name;\n        string description;\n        uint256 price;\n    }\n\n    // State variables\n    mapping(uint => Article) public articles;\n    uint articleCounter;\n\n    // Events\n    event sellArticleEvent(\n        uint indexed _id,\n        address indexed _seller,\n        string _name,\n        uint256 _price\n    );\n    event buyArticleEvent(\n        uint indexed _id,\n        address indexed _seller,\n        address indexed _buyer,\n        string _name,\n        uint256 _price\n    );\n\n    // sell an article\n    function sellArticle(string _name, string _description, uint256 _price) public {\n        articleCounter++;\n\n        articles[articleCounter] = Article(\n            articleCounter,\n            msg.sender,\n            0x0,\n            _name,\n            _description,\n            _price\n        );\n\n        sellArticleEvent(articleCounter, msg.sender, _name, _price);\n    }\n\n    // fetch the number of articles in the contract\n    function getNumberOfArticles() public constant returns (uint) {\n        return articleCounter;\n    }\n\n    // fetch and returns all article IDs available for sale\n    function getArticlesForSale() public constant returns (uint[]) {\n        if (articleCounter == 0) {\n            return new uint[](0);\n        }\n\n        // prepare output arrays\n        uint[] memory articleIds = new uint[](articleCounter);\n\n        uint numberOfArticlesForSale = 0;\n        for (uint i = 1; i <= articleCounter; i++) {\n            if (articles[i].buyer == 0x0) {\n                articleIds[numberOfArticlesForSale] = articles[i].id;\n                numberOfArticlesForSale++;\n            }\n        }\n\n        // copy result to smaller array\n        uint[] memory forSale = new uint[](numberOfArticlesForSale);\n        for (i = 0; i < numberOfArticlesForSale; i++) {\n            forSale[i] = articleIds[i];\n        }\n        return forSale;\n    }\n\n    // buy an article\n    function buyArticle(uint _id) payable public {\n        // there should be at least 1 article\n        require(articleCounter > 0);\n\n        // the article should exist\n        require(_id > 0 && _id <= articleCounter);\n\n        // retrieve the article\n        Article storage article = articles[_id];\n\n        // should not be sold\n        require(article.buyer == 0x00);\n\n        // you cannot by your own article\n        require(msg.sender != article.seller);\n\n        // the value send transacted corresponds to the article price\n        require(msg.value == article.price);\n\n        // keep the buyer's information\n        article.buyer = msg.sender;\n\n        // the buyer can buy the article\n        article.seller.transfer(msg.value);\n\n        //trigger event\n        buyArticleEvent(_id, article.seller, article.buyer, article.name, article.price);\n    }\n\n    // kill the smart contract\n    function kill() onlyOwner {\n        selfdestruct(owner);\n    }\n}\n",
  "sourcePath": "/Users/hezj/ChainSkills/Training/chainlist/contracts/ChanList.sol",
  "compiler": {
    "name": "solc",
    "version": "0.4.18+commit.9cf6e910.Emscripten.clang"
  },
  "schemaVersion": "1.0.1",
  "updatedAt": "2018-01-10T02:55:01.338Z"
}